{
  "abi": [
    {
      "inputs": [],
      "stateMutability": "nonpayable",
      "type": "constructor"
    },
    {
      "anonymous": false,
      "inputs": [
        {
          "indexed": true,
          "internalType": "address",
          "name": "previousOwner",
          "type": "address"
        },
        {
          "indexed": true,
          "internalType": "address",
          "name": "newOwner",
          "type": "address"
        }
      ],
      "name": "OwnershipTransferred",
      "type": "event"
    },
    {
      "anonymous": false,
      "inputs": [
        {
          "indexed": false,
          "internalType": "uint256",
          "name": "",
          "type": "uint256"
        }
      ],
      "name": "newTotalSupply",
      "type": "event"
    },
    {
      "anonymous": false,
      "inputs": [
        {
          "indexed": false,
          "internalType": "address",
          "name": "",
          "type": "address"
        },
        {
          "indexed": false,
          "internalType": "uint256",
          "name": "",
          "type": "uint256"
        }
      ],
      "name": "transferEvent",
      "type": "event"
    },
    {
      "inputs": [
        {
          "internalType": "address",
          "name": "",
          "type": "address"
        }
      ],
      "name": "balances",
      "outputs": [
        {
          "internalType": "uint256",
          "name": "",
          "type": "uint256"
        }
      ],
      "stateMutability": "view",
      "type": "function"
    },
    {
      "inputs": [],
      "name": "getTotalSupply",
      "outputs": [
        {
          "internalType": "uint256",
          "name": "",
          "type": "uint256"
        }
      ],
      "stateMutability": "view",
      "type": "function"
    },
    {
      "inputs": [],
      "name": "getUserBalance",
      "outputs": [
        {
          "internalType": "uint256",
          "name": "",
          "type": "uint256"
        }
      ],
      "stateMutability": "view",
      "type": "function"
    },
    {
      "inputs": [],
      "name": "increaseTotalSupply",
      "outputs": [],
      "stateMutability": "nonpayable",
      "type": "function"
    },
    {
      "inputs": [],
      "name": "owner",
      "outputs": [
        {
          "internalType": "address",
          "name": "",
          "type": "address"
        }
      ],
      "stateMutability": "view",
      "type": "function"
    },
    {
      "inputs": [],
      "name": "renounceOwnership",
      "outputs": [],
      "stateMutability": "nonpayable",
      "type": "function"
    },
    {
      "inputs": [],
      "name": "totalSupply",
      "outputs": [
        {
          "internalType": "uint256",
          "name": "",
          "type": "uint256"
        }
      ],
      "stateMutability": "view",
      "type": "function"
    },
    {
      "inputs": [
        {
          "internalType": "uint256",
          "name": "_amount",
          "type": "uint256"
        },
        {
          "internalType": "address",
          "name": "_recipient",
          "type": "address"
        }
      ],
      "name": "transfer",
      "outputs": [],
      "stateMutability": "nonpayable",
      "type": "function"
    },
    {
      "inputs": [
        {
          "internalType": "address",
          "name": "newOwner",
          "type": "address"
        }
      ],
      "name": "transferOwnership",
      "outputs": [],
      "stateMutability": "nonpayable",
      "type": "function"
    },
    {
      "inputs": [
        {
          "internalType": "address",
          "name": "_addy",
          "type": "address"
        }
      ],
      "name": "viewPaymentsRecord",
      "outputs": [
        {
          "components": [
            {
              "internalType": "address",
              "name": "recipient",
              "type": "address"
            },
            {
              "internalType": "uint256",
              "name": "amount",
              "type": "uint256"
            }
          ],
          "internalType": "struct volcanoCoin.Payment[]",
          "name": "",
          "type": "tuple[]"
        }
      ],
      "stateMutability": "view",
      "type": "function"
    }
  ],
  "bytecode": {
    "object": "0x608060405261271060015534801561001657600080fd5b5061002033610058565b60008054600280546001600160a01b0319166001600160a01b03909216918217905560015490825260036020526040909120556100a8565b600080546001600160a01b038381166001600160a01b0319831681178455604051919092169283917f8be0079c531659141344cd1fd0a4f28419497f9722a3daafe3b4186f6b6457e09190a35050565b61062b806100b76000396000f3fe608060405234801561001057600080fd5b506004361061009e5760003560e01c8063b7013dc111610066578063b7013dc114610128578063b7760c8f1461013d578063c4e41b2214610150578063de0f2be114610158578063f2fde38b1461016057600080fd5b806307e88f96146100a357806318160ddd146100cc57806327e235e3146100e3578063715018a6146101035780638da5cb5b1461010d575b600080fd5b6100b66100b136600461050d565b610173565b6040516100c3919061052f565b60405180910390f35b6100d560015481565b6040519081526020016100c3565b6100d56100f136600461050d565b60036020526000908152604090205481565b61010b6101fe565b005b6000546040516001600160a01b0390911681526020016100c3565b336000908152600360205260409020546100d5565b61010b61014b366004610587565b610212565b6001546100d5565b61010b610375565b61010b61016e36600461050d565b6103ce565b6001600160a01b0381166000908152600460209081526040808320805482518185028101850190935280835260609492939192909184015b828210156101f3576000848152602090819020604080518082019091526002850290910180546001600160a01b031682526001908101548284015290835290920191016101ab565b505050509050919050565b610206610447565b61021060006104a1565b565b3360009081526003602052604090205482111561026d5760405162461bcd60e51b8152602060048201526014602482015273496e73756666696369656e742062616c616e636560601b60448201526064015b60405180910390fd5b336000908152600360205260408120805484929061028c9084906105c9565b90915550506001600160a01b038116600090815260036020526040812080548492906102b99084906105e2565b909155505033600090815260046020908152604080832081518083019092526001600160a01b038086168352828401878152825460018082018555938752949095209251600290940290920180546001600160a01b0319169390921692909217815591519101556001600160a01b038116600081815260036020908152604091829020548251938452908301527fa293e6be9b6b618469a315d36807cd3caba9bb3f423348e835bf4517fd81b11a910160405180910390a15050565b61037d610447565b6103e86001600082825461039191906105e2565b90915550506001546040519081527f9a9dfa2786f5489f5af7de80fa4b0ed14099b712ab70614b9da58b29e65e1d649060200160405180910390a1565b6103d6610447565b6001600160a01b03811661043b5760405162461bcd60e51b815260206004820152602660248201527f4f776e61626c653a206e6577206f776e657220697320746865207a65726f206160448201526564647265737360d01b6064820152608401610264565b610444816104a1565b50565b6000546001600160a01b031633146102105760405162461bcd60e51b815260206004820181905260248201527f4f776e61626c653a2063616c6c6572206973206e6f7420746865206f776e65726044820152606401610264565b600080546001600160a01b038381166001600160a01b0319831681178455604051919092169283917f8be0079c531659141344cd1fd0a4f28419497f9722a3daafe3b4186f6b6457e09190a35050565b80356001600160a01b038116811461050857600080fd5b919050565b60006020828403121561051f57600080fd5b610528826104f1565b9392505050565b602080825282518282018190526000919060409081850190868401855b8281101561057a57815180516001600160a01b0316855286015186850152928401929085019060010161054c565b5091979650505050505050565b6000806040838503121561059a57600080fd5b823591506105aa602084016104f1565b90509250929050565b634e487b7160e01b600052601160045260246000fd5b818103818111156105dc576105dc6105b3565b92915050565b808201808211156105dc576105dc6105b356fea2646970667358221220f3e3d4f7df4c0d4cc1804e7c588e034c0c7d5fcfc3057b51a18353c8f0de8c2164736f6c63430008110033",
    "linkReferences": {}
  },
  "methodIdentifiers": {
    "balances(address)": "27e235e3",
    "getTotalSupply()": "c4e41b22",
    "getUserBalance()": "b7013dc1",
    "increaseTotalSupply()": "de0f2be1",
    "owner()": "8da5cb5b",
    "renounceOwnership()": "715018a6",
    "totalSupply()": "18160ddd",
    "transfer(uint256,address)": "b7760c8f",
    "transferOwnership(address)": "f2fde38b",
    "viewPaymentsRecord(address)": "07e88f96"
  },
  "id": 11
}