{
  "abi": [
    {
      "inputs": [],
      "stateMutability": "nonpayable",
      "type": "constructor"
    },
    {
      "anonymous": false,
      "inputs": [
        {
          "indexed": true,
          "internalType": "address",
          "name": "previousOwner",
          "type": "address"
        },
        {
          "indexed": true,
          "internalType": "address",
          "name": "newOwner",
          "type": "address"
        }
      ],
      "name": "OwnershipTransferred",
      "type": "event"
    },
    {
      "anonymous": false,
      "inputs": [
        {
          "indexed": false,
          "internalType": "uint256",
          "name": "",
          "type": "uint256"
        }
      ],
      "name": "newTotalSupply",
      "type": "event"
    },
    {
      "anonymous": false,
      "inputs": [
        {
          "indexed": false,
          "internalType": "address",
          "name": "",
          "type": "address"
        },
        {
          "indexed": false,
          "internalType": "uint256",
          "name": "",
          "type": "uint256"
        }
      ],
      "name": "transferEvent",
      "type": "event"
    },
    {
      "inputs": [],
      "name": "Owner",
      "outputs": [
        {
          "internalType": "address",
          "name": "",
          "type": "address"
        }
      ],
      "stateMutability": "view",
      "type": "function"
    },
    {
      "inputs": [
        {
          "internalType": "address",
          "name": "",
          "type": "address"
        }
      ],
      "name": "balances",
      "outputs": [
        {
          "internalType": "uint256",
          "name": "",
          "type": "uint256"
        }
      ],
      "stateMutability": "view",
      "type": "function"
    },
    {
      "inputs": [],
      "name": "getTotalSupply",
      "outputs": [
        {
          "internalType": "uint256",
          "name": "",
          "type": "uint256"
        }
      ],
      "stateMutability": "view",
      "type": "function"
    },
    {
      "inputs": [],
      "name": "getUserBalance",
      "outputs": [
        {
          "internalType": "uint256",
          "name": "",
          "type": "uint256"
        }
      ],
      "stateMutability": "view",
      "type": "function"
    },
    {
      "inputs": [],
      "name": "increaseTotalSupply",
      "outputs": [],
      "stateMutability": "nonpayable",
      "type": "function"
    },
    {
      "inputs": [],
      "name": "owner",
      "outputs": [
        {
          "internalType": "address",
          "name": "",
          "type": "address"
        }
      ],
      "stateMutability": "view",
      "type": "function"
    },
    {
      "inputs": [],
      "name": "renounceOwnership",
      "outputs": [],
      "stateMutability": "nonpayable",
      "type": "function"
    },
    {
      "inputs": [],
      "name": "totalSupply",
      "outputs": [
        {
          "internalType": "uint256",
          "name": "",
          "type": "uint256"
        }
      ],
      "stateMutability": "view",
      "type": "function"
    },
    {
      "inputs": [
        {
          "internalType": "uint256",
          "name": "_amount",
          "type": "uint256"
        },
        {
          "internalType": "address",
          "name": "_recipient",
          "type": "address"
        }
      ],
      "name": "transfer",
      "outputs": [],
      "stateMutability": "nonpayable",
      "type": "function"
    },
    {
      "inputs": [
        {
          "internalType": "address",
          "name": "newOwner",
          "type": "address"
        }
      ],
      "name": "transferOwnership",
      "outputs": [],
      "stateMutability": "nonpayable",
      "type": "function"
    },
    {
      "inputs": [
        {
          "internalType": "address",
          "name": "_addy",
          "type": "address"
        }
      ],
      "name": "viewPaymentsRecord",
      "outputs": [
        {
          "components": [
            {
              "internalType": "address",
              "name": "recipient",
              "type": "address"
            },
            {
              "internalType": "uint256",
              "name": "amount",
              "type": "uint256"
            }
          ],
          "internalType": "struct volcanoCoin.Payment[]",
          "name": "",
          "type": "tuple[]"
        }
      ],
      "stateMutability": "view",
      "type": "function"
    }
  ],
  "bytecode": {
    "object": "0x608060405261271060015534801561001657600080fd5b5061002033610058565b60008054600280546001600160a01b0319166001600160a01b03909216918217905560015490825260036020526040909120556100a8565b600080546001600160a01b038381166001600160a01b0319831681178455604051919092169283917f8be0079c531659141344cd1fd0a4f28419497f9722a3daafe3b4186f6b6457e09190a35050565b610653806100b76000396000f3fe608060405234801561001057600080fd5b50600436106100a95760003560e01c8063b4a99a4e11610071578063b4a99a4e1461013d578063b7013dc114610150578063b7760c8f14610165578063c4e41b2214610178578063de0f2be114610180578063f2fde38b1461018857600080fd5b806307e88f96146100ae57806318160ddd146100d757806327e235e3146100ee578063715018a61461010e5780638da5cb5b14610118575b600080fd5b6100c16100bc366004610535565b61019b565b6040516100ce9190610557565b60405180910390f35b6100e060015481565b6040519081526020016100ce565b6100e06100fc366004610535565b60036020526000908152604090205481565b610116610226565b005b6000546001600160a01b03165b6040516001600160a01b0390911681526020016100ce565b600254610125906001600160a01b031681565b336000908152600360205260409020546100e0565b6101166101733660046105af565b61023a565b6001546100e0565b61011661039d565b610116610196366004610535565b6103f6565b6001600160a01b0381166000908152600460209081526040808320805482518185028101850190935280835260609492939192909184015b8282101561021b576000848152602090819020604080518082019091526002850290910180546001600160a01b031682526001908101548284015290835290920191016101d3565b505050509050919050565b61022e61046f565b61023860006104c9565b565b336000908152600360205260409020548211156102955760405162461bcd60e51b8152602060048201526014602482015273496e73756666696369656e742062616c616e636560601b60448201526064015b60405180910390fd5b33600090815260036020526040812080548492906102b49084906105f1565b90915550506001600160a01b038116600090815260036020526040812080548492906102e190849061060a565b909155505033600090815260046020908152604080832081518083019092526001600160a01b038086168352828401878152825460018082018555938752949095209251600290940290920180546001600160a01b0319169390921692909217815591519101556001600160a01b038116600081815260036020908152604091829020548251938452908301527fa293e6be9b6b618469a315d36807cd3caba9bb3f423348e835bf4517fd81b11a910160405180910390a15050565b6103a561046f565b6103e8600160008282546103b9919061060a565b90915550506001546040519081527f9a9dfa2786f5489f5af7de80fa4b0ed14099b712ab70614b9da58b29e65e1d649060200160405180910390a1565b6103fe61046f565b6001600160a01b0381166104635760405162461bcd60e51b815260206004820152602660248201527f4f776e61626c653a206e6577206f776e657220697320746865207a65726f206160448201526564647265737360d01b606482015260840161028c565b61046c816104c9565b50565b6000546001600160a01b031633146102385760405162461bcd60e51b815260206004820181905260248201527f4f776e61626c653a2063616c6c6572206973206e6f7420746865206f776e6572604482015260640161028c565b600080546001600160a01b038381166001600160a01b0319831681178455604051919092169283917f8be0079c531659141344cd1fd0a4f28419497f9722a3daafe3b4186f6b6457e09190a35050565b80356001600160a01b038116811461053057600080fd5b919050565b60006020828403121561054757600080fd5b61055082610519565b9392505050565b602080825282518282018190526000919060409081850190868401855b828110156105a257815180516001600160a01b03168552860151868501529284019290850190600101610574565b5091979650505050505050565b600080604083850312156105c257600080fd5b823591506105d260208401610519565b90509250929050565b634e487b7160e01b600052601160045260246000fd5b81810381811115610604576106046105db565b92915050565b80820180821115610604576106046105db56fea264697066735822122001bced959e5112686e135d8a8668b58da26fc7110f06cc88fa381078233a3af264736f6c63430008110033",
    "linkReferences": {}
  },
  "methodIdentifiers": {
    "Owner()": "b4a99a4e",
    "balances(address)": "27e235e3",
    "getTotalSupply()": "c4e41b22",
    "getUserBalance()": "b7013dc1",
    "increaseTotalSupply()": "de0f2be1",
    "owner()": "8da5cb5b",
    "renounceOwnership()": "715018a6",
    "totalSupply()": "18160ddd",
    "transfer(uint256,address)": "b7760c8f",
    "transferOwnership(address)": "f2fde38b",
    "viewPaymentsRecord(address)": "07e88f96"
  },
  "id": 9
}